:030000000208AD46
:0C08AD00787FE4F6D8FD7581070208B9D9
:04087A007F0A7E0073
:10087E00E4FDFCC3ED9FEC9E5015E4FBFA0BBB00B0
:0F088E00010AEB64784A70F50DBD00010C80E49F
:01089D002238
:0F089E007590FF7580FF75A0FF75B0FFC2A62291
:1008000020A12C12087A20A126C291C280C2A67F04
:10081000F40E12087ED291D2A612087EC291C2A610
:1008200012087ED291D2A612087ED28030A1FD207D
:10083000A42012087A20A41AC2907FF40E12087E17
:10084000D29012087EC29012087ED29012087E309A
:10085000A4FD20A52412087A20A51EC291C2807F83
:10086000F40E12087ED29112087EC29112087ED236
:0A0870009112087ED28030A5FD220F
:0808B90012089E12080080FBEA
:00000001FF
